:100000000C942A000C948F010C943C000C943C003E
:100010000C943C000C943C000C943C000C943C0070
:100020000C943C000C943C000C943C000C943C0060
:100030000C943C000C943C000C943C000C943C0050
:100040000C943C000C943C000C943C000C943C0040
:100050000C943C0011241FBECFE5D8E0DEBFCDBF1D
:1000600020E0A0E6B0E001C01D92AC36B207E1F797
:100070000E94ED010C94F3070C94000090916B002A
:100080008BEA989F812D11248695282F220F820FAD
:10009000981308C063E081E40E94CE0163E083E42A
:1000A0000E94CE0190916B008BEA989F812D1124C4
:1000B0008695282F220F820F981B913049F463E018
:1000C00081E40E94DE0163E083E40E94CE01089592
:1000D000923061F463E081E40E94DE0180916A0065
:1000E000813021F463E083E40E94DE01089566E03C
:1000F00081E40E94AE0160E081E40E94AE0163E011
:1001000081E40E94AE0160E083E40E94AE0166E0FB
:1001100083E40E94AE0163E083E40E94AE0162E0EA
:1001200084E40E949E0180E094E00E945C048EE3DF
:1001300090E00E942F0468EE71E080E090E00E9461
:10014000350463E080E00E94F90310926A00109287
:100150006B000895813041F118F0823099F036C07B
:1001600060E081E40E94BE0166E083E40E94BE017B
:1001700066E081E40E94CE0160E083E40E94CE014B
:1001800080E0089560E081E40E94BE0160E083E4C5
:100190000E94BE0166E081E40E94CE0166E083E435
:1001A0000E94CE0180E0089566E081E40E94BE01D5
:1001B00066E083E40E94BE0160E081E40E94CE011B
:1001C00060E083E40E94CE0180E0089581E008951C
:1001D00066E081E40E94BE0160E081E40E94BE010D
:1001E00063E081E40E94BE0160E083E40E94BE01FE
:1001F00066E083E40E94BE0163E083E40E94BE01E6
:10020000E7CF66E081E40E94CE0160E081E40E94D5
:10021000CE0163E081E40E94CE0160E083E40E94AD
:10022000CE0166E083E40E94CE0163E083E40E9495
:10023000CE0110926B0081E00E94AA00813009F487
:100240006CC023E133E140E050E060E070E080E02A
:1002500090E00E94950482E080936B0081E00E9410
:10026000AA00813009F459C023E133E140E050E0B5
:1002700060E070E080E090E00E94950480916A0068
:10028000813031F510926B0082E00E94AA0081302B
:1002900009F443C023E133E140E050E060E070E066
:1002A00080E090E00E94950482E080936B000E94C1
:1002B000AA00813091F123E133E140E050E060E0B9
:1002C00070E080E090E00E94950410926A00B1CF47
:1002D000811123C010926B000E94AA008130E9F0C6
:1002E00023E133E140E050E060E070E080E090E046
:1002F0000E94950481E080936B0080E00E94AA0038
:10030000813059F023E133E140E050E060E070E0FB
:1003100080E090E00E9495048CCF0E94E8001F923C
:100320000F920FB60F9211248F9381E080936A0091
:100330008F910F900FBE0F901F90189540E00E9474
:10034000F401823029F0833029F0882329F00895C0
:1003500081E0089582E0089580E0089541E00E94E0
:10036000F401823029F0833029F0882329F00895A0
:1003700081E0089582E0089580E0089541E00E94C0
:10038000A802823029F0833029F0882329F00895CB
:1003900081E0089582E0089580E0089540E00E94A1
:1003A000A802823029F0833029F0882329F00895AB
:1003B00081E0089582E0089580E008950E94CB03D3
:1003C000823029F0833029F0882329F0089581E0D4
:1003D000089582E0089580E008950E9477000E94C9
:1003E000010180E090E00895823479F118F48134BD
:1003F00041F094C0833409F44CC0843409F46DC0D6
:100400008DC0411110C0683008F08AC02AB381E065
:1004100090E002C0880F991F6A95E2F780958223C9
:100420008ABB80E00895413009F07CC0683008F054
:100430007BC02AB381E090E002C0880F991F6A95C3
:10044000E2F7822B8ABB80E00895411110C068302A
:1004500008F06CC027B381E090E002C0880F991FBC
:100460006A95E2F78095822387BB80E0089541304A
:1004700009F05EC0683008F05DC027B381E090E00D
:1004800002C0880F991F6A95E2F7822B87BB80E034
:100490000895411110C0683008F04EC024B381E0C7
:1004A00090E002C0880F991F6A95E2F78095822339
:1004B00084BB80E00895413009F040C0683008F006
:1004C0003FC024B381E090E002C0880F991F6A9575
:1004D000E2F7822B84BB80E0089541110FC06830A1
:1004E00088F521B381E090E002C0880F991F6A95DA
:1004F000E2F78095822381BB80E00895413021F5A9
:10050000683020F521B381E090E002C0880F991F88
:100510006A95E2F7822B81BB80E0089582E008951E
:1005200083E0089581E0089583E0089583E00895CD
:1005300081E0089583E0089583E0089581E00895BF
:1005400083E0089583E0089581E0089583E00895AD
:10055000823479F118F4813441F094C0833409F481
:100560004CC0843409F46DC08DC0411110C0683096
:1005700008F08AC02BB381E090E002C0880F991F79
:100580006A95E2F7809582238BBB80E00895413025
:1005900009F07CC0683008F07BC02BB381E090E0AC
:1005A00002C0880F991F6A95E2F7822B8BBB80E00F
:1005B0000895411110C0683008F06CC028B381E084
:1005C00090E002C0880F991F6A95E2F78095822318
:1005D00088BB80E00895413009F05EC0683008F0C3
:1005E0005DC028B381E090E002C0880F991F6A9532
:1005F000E2F7822B88BB80E00895411110C068307B
:1006000008F04EC025B381E090E002C0880F991F2A
:100610006A95E2F78095822385BB80E0089541309A
:1006200009F040C0683008F03FC025B381E090E099
:1006300002C0880F991F6A95E2F7822B85BB80E084
:10064000089541110FC0683088F522B381E090E031
:1006500002C0880F991F6A95E2F78095822382BBBA
:1006600080E00895413021F5683020F522B381E023
:1006700090E002C0880F991F6A95E2F7822B82BB37
:1006800080E0089582E0089583E0089584E008956D
:1006900083E0089583E0089584E0089583E0089559
:1006A00083E0089584E0089583E0089583E0089549
:1006B00084E0089583E00895683008F068C08234CB
:1006C00009F118F4813439F064C0833491F1843431
:1006D00009F446C05EC079B381E090E09C01062E2B
:1006E00002C0220F331F0A94E2F7872F90E0822383
:1006F000932302C0959587956A95E2F7FA01808366
:1007000080E0089576B381E090E09C01062E02C05F
:10071000220F331F0A94E2F7872F90E0822393235E
:1007200002C0959587956A95E2F7FA01808380E08B
:10073000089573B381E090E09C01062E02C0220F61
:10074000331F0A94E2F7872F90E08223932302C09D
:10075000959587956A95E2F7FA01808380E0089580
:1007600070B381E090E09C01062E02C0220F331F7F
:100770000A94E2F7872F90E08223932302C0959595
:1007800087956A95E2F7FA01808380E0089583E017
:10079000089582E00895FF920F931F93CF93DF9304
:1007A0001F92CDB7DEB7082FF62EAE014F5F5F4F19
:1007B0000E945C03811112C01981111106C041E031
:1007C0006F2D802F0E94A8020CC0113049F440E028
:1007D0006F2D802F0E94A80210E003C0182F01C0C7
:1007E00015E0812F0F90DF91CF911F910F91FF9016
:1007F0000895813069F018F08230C1F028C064306B
:1008000040F585B7682B65BF8BB780648BBF1CC074
:10081000643008F585B770E0660F771F660F771FA5
:10082000682B65BF8BB780688BBF0EC0623021F428
:1008300084B78F7B84BF05C0633079F484B780644C
:1008400084BF8BB780628BBF789480E0089581E08D
:10085000089582E0089582E0089582E008959093DB
:1008600069008093680080E0089516161706180640
:100870001906ACF40E94E10520E030E040E85BE3BB
:100880000E94D4060E945D050E94B005609360003E
:100890007093610080936200909363000BC08FEFB0
:1008A0009FEFDC018093600090936100A093620051
:1008B000B093630080E0089513BE80349105B9F0D1
:1008C00030F48130910559F0089769F02CC08115FA
:1008D00021E0920799F081159440A1F024C083B7DC
:1008E000816083BF15C083B7826083BF11C083B7A7
:1008F000816083BF83B7826083BF0AC083B784608F
:1009000083BF06C083B7816083BF83B7846083BF22
:1009100080E090E00E942F046FEF7FEFCB010E94F8
:10092000350480E0089582E008952F923F924F921F
:100930005F926F927F928F929F92AF92BF92CF926F
:10094000DF92EF92FF920F931F93CF93DF93CDB778
:10095000DEB760970FB6F894DEBF0FBECDBF298714
:100960003A874B875C876D877E878F87988B10923D
:1009700064001092650010926600109267000E9459
:100980001C0620E030E040E85BE30E94D4060E94B1
:100990005D050E94790529833A834B835C836D83CF
:1009A0007E838F83988752C0A980BA80CB80DC80F9
:1009B000ED80FE800F81188529853A854B855C8501
:1009C0006D857E858F8598890E948D07219522BF30
:1009D00008B600FEFDCF88B7816088BF60916400D3
:1009E0007091650080916600909167002091600091
:1009F0003091610040916200509163000E9469074C
:100A0000672B682B692B79F48091600090916100CD
:100A1000A0916200B0916300BB232CF0E0916800CC
:100A2000F091690009958091640090916500A09112
:100A30006600B09167000196A11DB11D809364000E
:100A400090936500A0936600B09367008091640066
:100A500090916500A0916600B09167001C012D0186
:100A6000A980BA80CB80DC80ED80FE800F81188564
:100A7000282F332D442D552D60E070E080E090E06C
:100A80000E94EA0708F490CF60960FB6F894DEBF94
:100A90000FBECDBFDF91CF911F910F91FF90EF90CF
:100AA000DF90CF90BF90AF909F908F907F906F908E
:100AB0005F904F903F902F9008950E94B50690F060
:100AC0009F3748F4911116F40C94CE0660E070E064
:100AD00080E89FE3089526F01B16611D711D811D9E
:100AE0000C945A060C947506BEE304D008F490E802
:100AF0000895BFE322273327A9010E949B0660F1D6
:100B00009F5748F1B91740F1BFE3B91B9927B85077
:100B10003AF4660F771F881F991FB395D2F316C05A
:100B2000B8504AF0232F342F452F562F672F782F98
:100B30008827B850BAF7B85F49F0869577956795DA
:100B40005795479537952795BA95B9F716F40E94AA
:100B5000830688940895889460E070E0CB0108953E
:100B60000E949B0688F09F5798F0B92F9927B7519C
:100B7000B0F0E1F0660F771F881F991F1AF0BA9541
:100B8000C9F714C0B13091F00E94CD06B1E00895CC
:100B90000C94CD06672F782F8827B85F39F0B93FBE
:100BA000CCF3869577956795B395D9F73EF49095F4
:100BB0008095709561957F4F8F4F9F4F0895E89472
:100BC00009C097FB3EF490958095709561957F4F95
:100BD0008F4F9F4F9923A9F0F92F96E9BB27939543
:100BE000F695879577956795B795F111F8CFFAF453
:100BF000BB0F11F460FF1BC06F5F7F4F8F4F9F4F84
:100C000016C0882311F096E911C0772321F09EE8E1
:100C1000872F762F05C0662371F096E8862F70E047
:100C200060E02AF09A95660F771F881FDAF7880F21
:100C30009695879597F90895E894F92F96EBFF23F9
:100C400081F0121613061406440B9395F6958795BA
:100C50007795679557954040FF23B9F71BC09927B3
:100C60000895882351F49850D2F7872B762F652F5B
:100C7000542F432F322F20E0B1F31216130614061F
:100C8000440B88233AF09A95440F551F661F771F2F
:100C9000881FCAF755234AF4440F551F11F460FF0B
:100CA00004C06F5F7F4F8F4F9F4F880F969587953A
:100CB00097F90895882371F4772321F09850872BB2
:100CC000762F07C0662311F499270DC09051862B0B
:100CD00070E060E02AF09A95660F771F881FDAF7B8
:100CE000880F9695879597F908959F3F31F0915019
:100CF00020F4879577956795B795880F911D969500
:100D0000879597F908959095809570956095509581
:100D10004095309521953F4F4F4F5F4F6F4F7F4F1D
:100D20008F4F9F4F089557FD9058440F551F59F00E
:100D30005F3F71F04795880F97FB991F61F09F3FC8
:100D400079F087950895121613061406551FF2CFF1
:100D50004695F1DF08C0161617061806991FF1CF41
:100D6000869571056105089408950E949B06A0F080
:100D7000BEE7B91788F4BB279F3860F41616B11D7B
:100D8000672F782F8827985FF7CF86957795679597
:100D9000B11D93959639C8F30895E894BB2766274B
:100DA0007727CB0197F908950E94E7060C9458071E
:100DB0000E944A0738F00E94510720F0952311F055
:100DC0000C9441070C94470711240C94CE060E9402
:100DD000930670F3959FC1F3950F50E0551F629FE6
:100DE000F001729FBB27F00DB11D639FAA27F00D84
:100DF000B11DAA1F649F6627B00DA11D661F829FAB
:100E00002227B00DA11D621F739FB00DA11D621F8F
:100E1000839FA00D611D221F749F3327A00D611DAC
:100E2000231F849F600D211D822F762F6A2F11248E
:100E30009F5750409AF0F1F088234AF0EE0FFF1FC1
:100E4000BB1F661F771F881F91505040A9F79E3F18
:100E5000510580F00C9441070C94CE065F3FE4F3FB
:100E6000983ED4F3869577956795B795F795E7956E
:100E70009F5FC1F7FE2B880F911D9695879597F977
:100E8000089597F99F6780E870E060E008959FEF0C
:100E900080EC089500240A94161617061806090611
:100EA000089500240A9412161306140605060895E0
:100EB000092E0394000C11F4882352F0BB0F40F468
:100EC000BF2B11F460FF04C06F5F7F4F8F4F9F4FA8
:100ED0000895A1E21A2EAA1BBB1BFD010DC0AA1F7B
:100EE000BB1FEE1FFF1FA217B307E407F50720F093
:100EF000A21BB30BE40BF50B661F771F881F991F0E
:100F00001A9469F760957095809590959B01AC0156
:100F1000BD01CF010895689401C0E8948F929F921B
:100F2000CF93DF930E949907DF91CF919F908F908D
:100F3000089588249924F401E401B0E49F93AA273A
:100F40009A158B049C04ED05FE05CF05D007A1077B
:100F500098F4AD2FDC2FCF2FFE2FE92D982C892E62
:100F6000982F872F762F652F542F432F322F22272C
:100F7000B85031F7BF9127C01B2EBF91BB27220F5E
:100F8000331F441F551F661F771F881F991F881C1A
:100F9000991CEE1FFF1FCC1FDD1FAA1FBB1F8A1449
:100FA0009B04EC05FD05CE05DF05A007B10748F061
:100FB0008A189B08EC09FD09CE09DF09A00BB10BCB
:100FC00021601A94E1F62EF49401AF01BE01CD0127
:100FD000000C08952A153B054C055D056E057F053F
:0A0FE000800791070895F894FFCFF1
:00000001FF
